:1000000003308A00A12B0000561D201020106D36F1
:1000100020323A102010E3360000202255274710E6
:10002000C827412A20224F27471000002010482AC5
:100030002024CF205410C427CE2320100000831684
:100040000910831209108316880183123B08880067
:1000500083160911831209152030F700F70B2E289B
:100060003128000083160911831209112030F7008E
:10007000F70B38283B28000008003B30840083132E
:100080000008031950280630F800F701F70B46283E
:10009000F80B45287B30F700F70B4C28800B4328E2
:1000A000080083160911831209118316091083129F
:1000B000091083168910831289103830BB001F2065
:1000C0000130BB003D200F30BB001F200130BB00C2
:1000D0001F200230BB003D200630BB001F208A11CC
:1000E0000A12C42BF701F8013B0803103C18F7076C
:1000F000F70CF80CBC18F707F70CF80C3C19F707CD
:10010000F70CF80CBC19F707F70CF80C3C1AF707BA
:10011000F70CF80CBC1AF707F70CF80C3C1BF707A8
:10012000F70CF80CBC1BF707F70CF80C8A110A1235
:10013000EE2B831606168312061AAD281430BB0068
:100140003D20831606168312061AAD280130B80624
:10015000831606168312061EA8288A110A12FD2B82
:10016000F801F901F701FA014008031DBA283F0818
:100170000319D4281030C1000310BD0DBE0DF70DBA
:10018000FA0D40087A02031DC7283F087702031CB6
:10019000D0283F08F702031CFA034008FA020314B0
:1001A000F80DF90DC10BBC2808003F0803194529BB
:1001B000C700430803194529C7070318E6287F30FD
:1001C000C702031C452903194529EA288130C707BE
:1001D000031845294708F700F801F901FA0140081A
:1001E000CB00CB174108CA004208C9001830C7002D
:1001F000C801491C13294608FA07031C0529F90AF6
:10020000031D0529F80A0319C8174508F907031C37
:100210000C29F80A0319C8174408C100C11741087E
:10022000F8070318C817C80DF80CF90CFA0CCB0C1A
:10023000CA0CC90C0310C70BF8280130F7070318C4
:100240004529F81B2A29CB0DFA0DF90DF80DF703F6
:1002500003194529CB1F3B29FA0A031D3B29F90A3B
:10026000031D3B29F80A031D3B29F80CF90CFA0C75
:10027000F70A031945294008C8004408C806C81FE2
:100280004329F8174929F8134929F701F801F90119
:10029000FA01080083168510831285141830F700C0
:1002A000F70B502953298316851083128510831666
:1002B00005148312051C57298E018F018E018316A8
:1002C0000514831205185F290F08FA000E08F700BD
:1002D0000F087A02031D64297708B2007A08B30078
:1002E0003308BE003208BD00C0013A30BF00B02064
:1002F00001307807B4007908B5000318B50A34084E
:100300000F3CAE00AF013508031C350FAF022F08BC
:10031000BC002E08BB008E30F7003C08F8003B08FC
:10032000F900FA01F808031D9F297908F800F9017E
:100330000830F702F808031D9F29F701A7290310C9
:10034000F81BA629F90DF80DF7039F29F8137A0871
:10035000C2007908C1007808C0007708BF00C33028
:10036000C600F530C5004830C4008030C300D52039
:100370007A08BE007908BD007808BC007708BB0089
:100380003E08C2003D08C1003C08C0003B08BF0059
:10039000C601C501C4018130C300D5207A08BE0062
:1003A0007908BD007808BC007708BB003E08C20091
:1003B0003D08C1003C08C0003B08BF00C601C501A4
:1003C000C4018130C300D5207A08BE007908BD0081
:1003D0007808BC007708BB008E30F7003B08F702B6
:1003E0003C08F9003D08F800F917F7080319032A3B
:1003F0000310F908031DFF29F8080319032AF90C53
:10040000F80CF70BF829BC1F0A2AF809F909F80AB1
:100410000319F90A7908B1007808B0003230BB003E
:100420003D208A110A12FE2B3108BE003008BD00A3
:10043000C0010A30BF00B02030307707A6007A082C
:10044000A7000318A70A3108BE003008BD00C0018C
:100450000A30BF00B0207908BC007808BB007908DA
:10046000BE007808BD00C0010A30BF00B0203030A7
:100470007707A4007A08A5000318A50A3108BE0072
:100480003008BD00C0016430BF00B0207908BC0056
:100490007808BB007908BE007808BD00C0010A30AA
:1004A000BF00B02030307707A2007A08A3000318FD
:1004B000A30A3108BE003008BD000330C000E83098
:1004C000BF00B0207908BC007808BB007908BE00E6
:1004D0007808BD00C0010A30BF00B0203030770777
:1004E000A0007A08A1000318A10A2008303C031DCF
:1004F000932AA108031D932AA1012030A0002208FD
:10050000303C031D932AA308031D932AA301203026
:10051000A2002408303C031D932AA508031D932A3A
:10052000A5012030A4002F08BE002E08BD00C00188
:100530000A30BF00B02030307707AC007A08AD0039
:100540000318AD0A2F08BE002E08BD00C0010A30F6
:10055000BF00B0207908BC007808BB007908BE0055
:100560007808BD00C0010A30BF00B02030307707E6
:10057000AA007A08AB000318AB0A2F08BE002E08A9
:10058000BD00C0016430BF00B0207908BC0078080D
:10059000BB007908BE007808BD00C0010A30BF006A
:1005A000B02030307707A8007A08A9000318A90AFC
:1005B0002808303C031DEC2AA908031DEC2AA901D8
:1005C0002030A8002A08303C031DEC2AAB08031D8C
:1005D000EC2AAB012030AA00080083160910831210
:1005E00009148316880183123E08880083160911B6
:1005F000831209152030F700F70BFC2AFF2A0000B0
:1006000083160911831209112030F700F70B062B0E
:10061000092B000008000B08BB008B13831603177F
:100620008C170C140000000083120313BB1B8B17E4
:1006300003170C087F3903195F2B0313BB00031743
:100640000D080313BC0003170F080313BD003B087C
:10065000BE00ED223C0803178D0003133D0803176D
:100660008F0003130B08BE008B13831603178C1720
:100670000C140000000083120313BE1B8B1703171A
:100680000C0D0E0D7F3903195F2B0313BB000317ED
:100690000D080313BC0003170F080313BD003B082C
:1006A000BE00ED223C0803178D0003133D0803171D
:1006B0008F008D0A03198F0A03130B2B03170313E3
:1006C0000800C030BB001F20043003178D0000302D
:1006D0008F0003130B23C230BB001F202008BE0075
:1006E000ED222208BE00ED222408BE00ED222608DD
:1006F000BE00ED22CB30BB001F202808BE00ED223B
:100700002A08BE00ED222C08BE00ED220800803031
:10071000BB001F20163003178D0000308F0003131D
:100720000B231422612308008030BB001F200D30F2
:1007300003178D0000308F0003130B231422612355
:10074000080003081F3983003814B901FF30BA00CC
:10075000831603170908C039890003131F129F125B
:1007600000300317880083128701880189018313F1
:10077000F0308316031386000030880009108910BA
:100780000911891183125128381435309000003036
:10079000831687008312BA00F80006389200F930F9
:1007A0008316920083123A113A0883168700831247
:1007B00007110C30970083169B019C0101309D00AE
:1007C0008312BA103A0883168700831287100C3000
:1007D0009D003908BB000A30BC00722878089500DB
:1007E0009B0183160108C03902388100DC30831276
:1007F00081008B16C0308B0499284A29142261236A
:10080000381C332C87238316061083120614831694
:1008100086108312861028309500AF08031D142C13
:100820002E080E3C0318322CB701B601B708031D81
:100830002F2C3608033C031C2F2C83160610831222
:1008400006104630BB003D208316061083120614A6
:100850004630BB003D20B60A0319B70A162C942374
:1008600095013810502C9423831686108312861419
:1008700083160610831206109501AF08031D502C35
:100880002E08033C031C502C87238316061083126A
:1008900006148316861083128610283095003814AB
:0408A000FC2B6300CA
:04400E00E22FFF3F5F
:00000001FF
;PIC16F887
;CRC=717F  CREATED="05-Apr-18 19:17"
